:020000040800F2
:1000000048080020DD0100086D0A0008650A0008A4
:10001000690A0008610500084B2F00080000000075
:100020000000000000000000000000004D18000863
:100030006505000800000000F50A0008E12A000834
:10004000F7010008F7010008F7010008F7010008B0
:10005000F7010008F7010008F7010008F7010008A0
:10006000F7010008F7010008F7010008F701000890
:10007000F7010008F7010008F7010008F701000880
:10008000F7010008F7010008F7010008F701000870
:10009000F7010008F7010008F7010008F701000860
:1000A000F7010008F7010008F7010008F701000850
:1000B000F7010008512B0008F7010008F7010008BC
:1000C000F7010008F7010008F7010008F701000830
:1000D000F7010008092D0008F7010008F7010008E2
:1000E00069050008F7010008F7010008F70100089A
:1000F000F7010008F7010008F7010008F701000800
:10010000F7010008F7010008F7010008F7010008EF
:10011000F7010008F7010008F7010008F7010008DF
:10012000F7010008F7010008F7010008F7010008CF
:1001300000F002F800F042F80AA090E8000C8244B7
:100140008344AAF10107DA4501D100F037F8AFF294
:10015000090EBAE80F0013F0010F18BFFB1A43F0A5
:100160000103184788300000A8300000103A24BF6F
:1001700078C878C1FAD8520724BF30C830C144BF0C
:1001800004680C607047000000230024002500264E
:10019000103A28BF78C1FBD8520728BF30C148BFEA
:1001A0000B607047642900F0A580732900F074810A
:1001B000002070471FB51FBD10B510BD00F09EF99F
:1001C0001146FFF7F7FF02F0EDFE00F0BCF903B4B3
:1001D000FFF7F2FF03BC02F0BAFE000009488047B7
:1001E00009480047FEE7FEE7FEE7FEE7FEE7FEE719
:1001F000FEE7FEE7FEE7FEE704480549054A064B31
:1002000070470000F12A0008310100084802002070
:1002100048080020480400204804002070470000DF
:100220000FB4044910B503AA029800F039F910BCC4
:100230005DF814FB2C0000202DE9F0410E46044629
:10024000002020622046E168884730B3252805D089
:10025000D4E901219047206A401CF2E7E16820467A
:1002600000278847050018D0A5F14100192802D8B9
:1002700020354FF400673246294620462760FFF7B5
:1002800091FF40B1012804D0F61D26F0070608367C
:10029000D8E7361DD6E72846DAE7206ABDE8F081C0
:1002A00070B50C460546012A05D02878800600D591
:1002B000EA69002302E0012305E05B1C934202D2BD
:1002C000E05C0028F9D1A869E618C01AA861286A7C
:1002D000184428622846AFF3008004E0D5E90121E4
:1002E00014F8010B9047B442F8D32846AFF30080CE
:1002F00070BD00002DE9F041064600241068752904
:10030000314616A510D0AFF30080002802DA404233
:1003100013A507E031688A0701D512A502E0490755
:1003200004D511A5012401E0AFF3008000210A22C9
:1003300006F1240709E0B0FBF2FCB0FBF2F302FB8C
:100340001C00303078541846491C0028F3D123464D
:100350002A463046BDE8F04100F033B80000000006
:100360002D0000002B000000200000004FF00002D4
:1003700000B5134694469646203922BFA0E80C509B
:10038000A0E80C50B1F12001BFF4F7AF090728BF76
:10039000A0E80C5048BF0CC05DF804EB890028BFF2
:1003A00040F8042B08BF704748BF20F8022B11F01B
:1003B000804F18BF00F8012B704770477047704797
:1003C00070472DE9F0470D4699469246044600F1E4
:1003D00024080168880604D5E06921F01001216035
:1003E00000E00120A84201DD471B00E00027A169D1
:1003F0007A1902EB0900081AA0612078C00602D41D
:100400002046AFF30080002608E0D4E901211AF865
:1004100006009047206A401C761C20624E45F4DBA3
:100420002078C0060AD52046AFF3008006E0D4E964
:10043000012130209047206A401C2062381EA7F11D
:100440000107F4DC07E0D4E9012118F80500904722
:10045000206A401C2062281EA5F10105F3DC20461D
:10046000AFF300802078000602D50220BDE8F087B7
:100470000120FBE710B5436913B1AFF3008001E041
:10048000FFF70EFF012010BD127800F124010A7061
:1004900000224A700122EDE711684FF0FF32E9E7D0
:1004A000074B70B50D467B4400F011F80446284612
:1004B00000F020F810B14FF0FF3070BD204670BD45
:1004C000D72A000001694A1C02610878704700B50C
:1004D0008FB0CDE901310021059105497944CDE97D
:1004E000031011466846FFF7A7FE0FB000BD0000DD
:1004F000E5FFFFFF007B00F080007047754600F0CD
:100500002BF8AE4605006946534620F007008546A5
:1005100018B020B5FFF770FEBDE820404FF0000690
:100520004FF000074FF000084FF0000B21F00701DB
:10053000AC46ACE8C009ACE8C009ACE8C009ACE81E
:10054000C0098D46704710B50446AFF300802046C1
:10055000BDE81040FFF73BBE00487047E8010020AF
:1005600000BFFEE77047000010B54FF40061094876
:1005700000F0DEF968B108A0FFF752FE09480068F4
:1005800018B100200749096888474FF4006000F05F
:100590000BF810BD000C014044494F3120697271C5
:1005A0000D0A00003000002001490860704700007B
:1005B00014040140002123498279002A3AD00A46D6
:1005C000126803689A430B461A600A1D1268036892
:1005D0009A430B1D1A60027911440A6803681A4392
:1005E0000A60184A0832126803689A43154B0833A8
:1005F0001A601A1D126803689A43124B0C331A6072
:100600004279102A0ED11A1F126803681A430D4B43
:1006100008331A601A1D126803681A43094B0C3319
:100620001A600DE00749427911440A6803681A43C9
:100630000A6005E0027911440A6803689A430A6077
:1006400070470000000401408AB0002429492AA014
:10065000FFF7E6FD2E482F4908602F4888602F4895
:1006600048602F48C8602F4808612F480168294812
:1006700088472D48C1682D48884740F6B83000218A
:1006800005910691CDE90710012008220223CDE94A
:100690000132CDE9031007200090234800231A46B9
:1006A0001621C5690120A8470020069007900890F0
:1006B00009900120002102910391CDE90410082046
:1006C000CDE9001018480223072285690120A847B8
:1006D00017A0FFF7A5FD1448416B4FF4FA60884757
:1006E00006E01149086E8047641C012002F031FCCD
:1006F000F7E70000D331000873746172742025732A
:100700002829206578616D706C650D0A0000000075
:10071000B91D0008C4010020791C0008011E000852
:100720007D1D0008451D0008B430000880A1031C91
:10073000737461727420656E746572207278206DB6
:100740006F64650D0A00000030B500228B071C0F96
:100750000F2303FA04F20B4B8C1053F8243093430D
:10076000084C8D1044F8253023468C1053F8243063
:100770008C07240F00FA04F42343024C8D1044F834
:10078000253030BD080001402DE9F041024600252A
:100790000026002000230024002791F803C00CF05D
:1007A0000F0591F803C00CF0100CBCF1000F03D042
:1007B00091F802C04CEA050591F800C0BCF1000FA9
:1007C00031D0146800202BE04FF0010C0CFA00F33C
:1007D000B1F800C00CEA03069E4220D183004FF01E
:1007E0000F0C0CFA03F7BC4305FA03FC4CEA0404B3
:1007F00091F803C0BCF1280F06D14FF0010C0CFAA0
:1008000000FCC2F814C00AE091F803C0BCF1480F24
:1008100005D14FF0010C0CFA00FCC2F810C0401CCE
:100820000828D1D31460B1F800C0BCF1FF0F34DD4B
:10083000546800202EE000F1080C4FF0010808FA7F
:100840000CF3B1F800C00CEA03069E4221D18300EC
:100850004FF00F0C0CFA03F7BC4305FA03FC4CEA0B
:10086000040491F803C0BCF1280F05D100F1080C75
:1008700008FA0CF8C2F8148091F803C0BCF1480FD4
:1008800007D100F1080C4FF0010808FA0CF8C2F883
:100890001080401C0828CED35460BDE8F0810000D1
:1008A000F0B50A46002300240021002500F0004690
:1008B000B6F1004F02D11D4EF16901E01B4E716887
:1008C000C0F3034583B200F44016B6F5401F08D1CB
:1008D00021F07061154E766826F07066134F7E60C9
:1008E00012E000F48016B6F5801F06D1032606FA42
:1008F00005F4A14341F0706106E0460D360103FAAC
:1009000006F6B14341F0706122B1460D360103FA9B
:1009100006F6314300F00046B6F1004F02D1034E17
:10092000F16101E0014E7160F0BD00000000014086
:100930000246002093680B400BB1012000E000202C
:10094000704741617047016170470AB1016100E081
:1009500041617047014800687047000000000020B6
:1009600070B50446002506E028466D1CB0F5FA6F08
:1009700001D9FF2070BD02210E4800F03BFF002886
:10098000F2D021460B4800F041FF002506E0284642
:100990006D1CB0F5FA6F01D9FF20EBE70121054886
:1009A00000F028FF0028F2D0024800F02CFFC0B26F
:1009B000E0E700000030014000B587B0274802F0B2
:1009C000CFF9012144F2040000F0B6F803208DF8BD
:1009D0001A004FF40070ADF8180018208DF81B00B5
:1009E00006A91F48FFF7D0FE4FF48060ADF818004D
:1009F00048208DF81B0006A91948FFF7C5FE2520E1
:100A00008DF8040003208DF805008DF80600012004
:100A10008DF8070001A800F02BF84FF4E1300290A8
:100A20000020ADF80C00ADF80E00ADF81000ADF8E8
:100A300014000C20ADF8120002A9084802F010FAC8
:100A4000012240F22551054802F0E5F90121034851
:100A500002F079F9002007B000BD00000038014025
:100A60000008014000BFFEE700BFFEE7704700003E
:100A700070B5002100230F22C47804B3154C2468FC
:100A800004F4E064C4F5E064210AC1F10403CA403F
:100A9000447804FA03F184781440214309010E4C90
:100AA0000678A155047804F01F050124AC400578B0
:100AB0006D11AD0005F1E025C5F8004109E00478AD
:100AC00004F01F050124AC40044D0678761145F86A
:100AD000264070BD0CED00E000E400E080E100E0A5
:100AE00002490143024A1160704700000000FA0504
:100AF0000CED00E07047000029B1064AD2690243BC
:100B0000044BDA6104E0034AD2698243014BDA61A3
:100B1000704700000010024029B1064A12690243E2
:100B2000044B1A6104E0034A12698243014B1A61C3
:100B3000704700000010024029B1064A9269024342
:100B4000044B9A6104E0034A92698243014B9A6123
:100B5000704700000010024029B1064AD2680243E3
:100B6000044BDA6004E0034AD2688243014BDA6046
:100B7000704700000010024030B500210022002420
:100B800000232D4D6D6805F00C0121B1042905D01D
:100B9000082923D105E0294D056022E0274D056095
:100BA0001FE0254D6D6805F47012234D6D6805F446
:100BB0008034022505EB92421CB9214D5543056056
:100BC0000BE01D4D6D6805F400351DB11C4D5543FE
:100BD000056002E0194D5543056002E0174D0560C0
:100BE00000BF00BF144D6D6805F0F0010909154DF7
:100BF0006B5C0568DD4045600F4D6D6805F4E06194
:100C0000090A104D6B5C4568DD4085600A4D6D68D2
:100C100005F46051C90A0B4D6B5C4568DD40C56049
:100C2000054D6D6805F44041890B074D6B5CC56847
:100C3000B5FBF3F5056130BD0010024000127A00EB
:100C400000093D0018000020280000200146012076
:100C50007047000002460AB91F207047002111E0CA
:100C60000A4850F8310090420AD8084B481C53F803
:100C70003000904204D9481C03EBC0000079ECE737
:100C8000481CC1B21529EBD300BFFEE72031000894
:100C90002DE9F04107468C46DDE906450021032693
:100CA0000BB9082000E0002000EBC2001830012D35
:100CB00002D14FF0020801E04FF00008A04400EB21
:100CC000C800BDE8F0810000014600200B2922D2B7
:100CD000DFE801F0060C12181B1D1F21090F15007B
:100CE00041F6846017E042F6B10014E043F6095083
:100CF00011E045F261100EE047F612200BE04AF2D7
:100D0000C32008E04FF2244005E0044803E0044813
:100D100001E0044800BF00BF7047000048E8010040
:100D200090D0030020A107002DE9F04F044616469D
:100D3000DDE909C806F104094FF0000A0025002783
:100D4000052901D0062902D10C2B00DA0C231CB98D
:100D50000B2905D00C2903D0012C03D10C2901D17A
:100D60004FF0010A0B9808B1102000E0002000EBC2
:100D7000C8004FF0040B0BFB1100BCF1000F02D0B8
:100D80004FF0000B01E04FF0140B00EB0B050629B0
:100D900001D88A0007E00835BAF1010F02D1881E98
:100DA000820000E08A00002D00DA0025A818401E0D
:100DB00090FBF2F000FB093000F10C07062900D887
:100DC000BF1CB800401CA1F1020B4FF0010E0EFA3F
:100DD0000BFE00FB0EF0BDE8F08F00B500F0C4FD87
:100DE000042804D0052804D0072806D103E00220F7
:100DF00000BD0120FCE70320FAE70020F8E700B57A
:100E000000F0A1FDC01C00BD10B5044610480460F0
:100E1000104800F075FE002001F050FB012001F0A9
:100E200090FA0021084601F0E7F80421002001F0C3
:100E300085FB00231A464FF6FF71084601F024F99E
:100E400001F006FC00F070FE00200349087010BDA0
:100E500048000020951000084500002038B5002407
:100E60006548007801287CD100206349087000F0B3
:100E70006EFD0446204600F040FD04F0010078B10C
:100E800001F04AFC012001F0B7F95C48006838B174
:100E90005A480068006818B15849096808688047CE
:100EA00004F0020002284AD104F04000402812D188
:100EB0005348007810B9012001F09EF94F480068AE
:100EC00000283CD04D4800680069C0B34B49096810
:100ED0000869804733E001F067F84948007890B925
:100EE000012001F089F9002140F6021001F0A8FC70
:100EF00040F6441000F0DBFF40F00205294640F6C2
:100F0000441001F09DFCFF2269463E4800F07EFD42
:100F10003D4800F02FFD3948006878B13748006837
:100F2000806858B1384890F90D3090F90C2033485A
:100F300000689DF8001085683248A84700BF04F09B
:100F40008000802811D1012001F056F92B4800685B
:100F500058B12A480068806938B12848006881691A
:100F600000E047E0C4F30020884704F40070B0F5C7
:100F7000007F28D100F0F8FC042810D101F0CCFB50
:100F8000012001F039F91D480068E0B11B480068F4
:100F90004068C0B1194909684868804713E000F00B
:100FA000E3FC05280FD100F0FFFF012001F024F938
:100FB0001248006838B111480068C06818B10F497C
:100FC0000968C868804704F02000202812D100F08A
:100FD000EBFF0B48007810B9012001F00DF907482C
:100FE000006838B105480068C06818B1034909684D
:100FF000C868804738BD0000450000204800002038
:101000004400002088000020740000202DE9F047F3
:101010008AB080460C4615461E464FF001094FF037
:10102000000A0027002000F00DF9404600F0E8F823
:101030000120002106910791CDE90810029103914A
:10104000049103200B464FF41672CDE90040059140
:101050002146002000F03AF9002000F067F8012056
:1010600000F06BFC00BF0CE0002000F059F8824655
:10107000AA4502DD4FF0000905E0012000F05DFC0B
:101080007F1CB742F0D300BF00F038FB48460AB0DF
:10109000BDE8F0870121014A11707047450000202A
:1010A00010B504460548006838B104480068C068B7
:1010B00018B102490968C868804710BD480000207F
:1010C00010B504460548006838B104480068406817
:1010D00018B1024909684868804710BD48000020DF
:1010E00010B50024012000F0ADF800231A4619467F
:1010F000184600F0C9FF00F0A0FC0446204610BDD1
:1011000010B50446A0B200F0D2FE10BD70B5044682
:101110000D461646A0B23246294600F0D2FE70BDFA
:1011200010B5044600F0BDFC10BD000010B504462B
:1011300000231A464FF6FF71084600F0A5FF24B1C0
:10114000204601F07BF900F00FFF074800780128E6
:1011500004D16FF07F4001F026F904E003490968EB
:10116000880101F020F910BD44000020400000205B
:1011700010B5044600231A464FF6FF71084600F0EA
:1011800083FF24B1204601F059F900F0EDFE074835
:101190000078012804D16FF07F4001F018F904E0D5
:1011A00003490968880101F012F910BD44000020CC
:1011B0004000002070B505460C4600231A4640F258
:1011C0000121084600F060FF00F01AFC012802D15E
:1011D0000948C47301E008480472074801F026F882
:1011E00000222146284600F0FBFE0448006801F07A
:1011F000EBF901F071FA70BD880100203C0000207D
:1012000010B50446204601F0A3F810BD70B50546A0
:101210000C46012D06D1094804700948C47301F039
:1012200005F809E00648C079012805D10348047093
:101230000348047200F0FAFF70BD0000380000207F
:101240008801002010B5044614B1012C07D000BF5E
:10125000002001F05FF800200A49487010E00120EA
:1012600001F058F80748407806490978884206D0C6
:101270000448007803494870487800F005F800BF3A
:1012800000BF10BD4600002010B504460E48047093
:1012900044700120FFF7D6FF012C0AD134214FF40E
:1012A000E86001F0CDFA442140F2417001F0C8FA43
:1012B00009E014214FF4E86001F0C2FA242140F261
:1012C000417001F0BDFA10BD460000202DE9FE4F2F
:1012D00080460D4614469946DDF844B0DDE90EA778
:1012E0000D9E7AA103C9CDE901017A4915980870CC
:1012F0001598012801D14FF0000A012F03D176493A
:101300001098087002E0FF2073490870B8F1000FD0
:1013100003D0B8F1010F57D157E0002001F0DFF8FA
:1013200000206E4981F828000846C4620B2180F82D
:1013300034106800FFF78EFC0146684880F83510CD
:101340000020664908704FF6FF7000EAC60048802A
:10135000042162480171182141710021817187F0D7
:101360000101C1715C4801785C480172BBF1010F59
:1013700002D1F221417202E001215848417201215B
:101380005648817200F0CAF9544991F8281009B101
:10139000012100E000210846FFF754FF4F482830A4
:1013A00000F0C2FE4D4800F041FF01A801F09EF898
:1013B00040F2FF1001F028F94FF4FA500AFB00F058
:1013C000B0FBF4F0464908607DE0002001F087F8AA
:1013D0000120424981F82800084680F838404148F9
:1013E000415D3E4880F8391080F83A901DB90B2CC9
:1013F00005D00C2C03D0012D06D10C2C04D10121D9
:10140000364880F83B1003E00021344880F83B1058
:10141000012032490870084690F83800052804D0A9
:10142000084690F83800062808D10C2E03DA0C2163
:101430002A48818104E02948868101E02748868185
:1014400026488773244801782448C17380F810B077
:101450001499417400F062F9204991F8281009B1FB
:10146000012100E000210846FFF7ECFE1B48283070
:1014700000F05AFE194800F0D9FE0AF0FF0000F013
:1014800028FE1648407C01280CD140F2367000F04E
:101490000EFD20F004000146009040F2367001F08D
:1014A000CFF90BE040F2367000F001FD40F004008F
:1014B0000146009040F2367001F0C2F94FF6FF701D
:1014C0000749086000BF00BFBDE8FE8FC194C1009E
:1014D00000000000440000203800002088010020A7
:1014E00040000020D031000870B504460D46294662
:1014F000204600F085FF70BD2DE9FE4F0746884667
:1015000091461C46DDE90FAB0E9E0C9D69A103C9F7
:10151000CDE9010117B1012F4AD14AE00020674906
:1015200081F828000846C5620B2180F8341060005D
:10153000FFF790FB0146614880F83510C0F8309005
:1015400000205E4908704FF6FF7000EAC600488030
:1015500004215A48017118214171002181718AF0DA
:101560000101C171BBF1010F02D1F221417202E010
:1015700001215248417201215048817200F0CEF899
:101580004E4991F8281009B1012100E000210846D8
:10159000FFF758FE4948283000F0C6FD474800F0E4
:1015A00045FE01A800F0A2FF40F2FF1001F02CF868
:1015B00057E00120414981F82800084680F838505A
:1015C0003F48015D3D4880F839100D9980F83A1088
:1015D0001CB90B2D05D00C2D03D0012C06D10C2DE0
:1015E00004D10121354880F83B1003E00021334845
:1015F00080F83B10012031490870084690F8380007
:10160000052804D0084690F83800062808D10C2E8A
:1016100003DA0C212948818104E02848868101E011
:1016200026488681254880F80EA026480178234860
:10163000C17380F810B01399417400F06FF81F491E
:1016400091F8281009B1012100E000210846FFF7B8
:10165000F9FD1A48283000F067FD184800F0E6FD53
:1016600000BF00BF012F11D1144890F8390006289F
:101670000CD140F6890000F01AFC20F0040001466D
:10168000009040F6890001F0DBF80BE040F689009D
:1016900000F00DFC40F004000146009040F6890087
:1016A00001F0CEF8404600F077FE07491498086034
:1016B000BDE8FE8FC194C100000000008801002039
:1016C000D0310008380000203C0000202DE9F04116
:1016D00006460C4615464FF47A7005FB00F7304677
:1016E00000F036FE204600F057FE00F01DFF3846A1
:1016F00000F06AFF00F0F0FFBDE8F08108B50020BF
:1017000000909DF8000020F00400001D009000985B
:1017100000F0B4FE022000F010F908BD10B5002062
:1017200000F0CCFE10BD10B500231A464FF4C07176
:10173000084600F0A9FC00F06CFC10BD2DE9FE4F3E
:1017400081460E4615461F46DDE90EAB4FF00008F8
:101750000124B9F1000F03D0B9F1010F21D10DE03F
:10176000CDE900AB39462846DDE90C23FFF790FAB6
:101770004FF47A7100FB01F82C4612E00D988DE8C9
:10178000010C3A46294630460C9BFFF7CDFA4FF440
:101790007A7100FB01F80749885DFFF795FA044666
:1017A00000BF00BF08EB0400401EB0FBF4F0BDE832
:1017B000FE8F0000D031000870B504460D46A0B27F
:1017C000294601F03DF870BD70B504460D46164639
:1017D000A0B23246294601F03BF870BD21B1028823
:1017E00042F04002028004E002884FF6BF731A40C4
:1017F000028070470246002013890B400BB1012084
:1018000000E0002070470146888970478181704759
:1018100010B50022028802F441520B884C88234301
:101820008C882343CC8823430C8923434C8923434E
:101830008C892343CC8923431A430280838B4FF244
:10184000FF74234083830B8A038210BD7047704767
:101850007047000038B504461B48844206D9E12091
:101860008DF80000E9208DF8010026E01748844239
:1018700006D9D7208DF80000DB208DF801001CE090
:101880001348844206D9C1208DF80000C5208DF888
:10189000010012E00F48844206D975208DF800003F
:1018A00081208DF8010008E00B48844205D96B20A7
:1018B0008DF800006F208DF8010002226946982003
:1018C00000F09EFF38BD000000E9A43580F8A93281
:1018D0008044E52D000B6B1B40FC541910B500F043
:1018E00043F818B100F040F8062803D100F054FF87
:1018F000FFF7AEFF00F02CFF10BD38B50446200AFC
:101900008DF80000E0B28DF8010002226946104611
:1019100000F076FF38BD10B5014643F60950B1FB23
:10192000F0F202FB1013401000EB833043F6095431
:10193000B0FBF4F000EB823010BD10B50446A0B24D
:1019400001F007FB10BD002070470220704708B56A
:1019500002226946122000F084FA9DF801009DF8E9
:10196000001040EA012008BD0148007870470000DF
:101970004C00002038B5044603226946142000F0CC
:1019800070FA00F03DF82070207820B1012814D0C2
:101990000F2828D128E09DF8000020719DF8010053
:1019A0004042401041B2A1719DF8020040424010F7
:1019B00041B261710021A1601DE09DF8000040422C
:1019C000401041B221739DF8010040B2801C81108B
:1019D00061739DF802004042401041B2A173074874
:1019E0000168216107E000BF14212046FEF7BEFC1C
:1019F0000F20207000BF00BF38BD00005400002041
:101A0000014800787047000050000020F8B50546F6
:101A10000C461646002000906946204600F050F81B
:101A20002078B04201DD0120F8BD227829469DF8DA
:101A3000000000F0F1F90020F6E738B50020009032
:101A40000024002540F6E20000F031FA044624F0BC
:101A5000010140F6E20000F0F3FE40F6E50000F080
:101A600026FA054625F0800140F6E50000F0E8FE84
:101A70006FF07F4000F097FC0422694640F61900A1
:101A800000F01FFA002000F019FD214640F6E200A8
:101A900000F0D6FE294640F6E50000F0D1FE0098A1
:101AA00038BD38B5002401226946152000F0D9F967
:101AB0009DF800004042401044B2204638BD00006E
:101AC00038B504460D4602226946132000F0C9F9D4
:101AD000FFF796FF012809D108480078012805D1B1
:101AE00040F2027000F0E3F9207002E09DF800007F
:101AF00020709DF80100287038BD000051000020C2
:101B000010B5044600F006FA204600F069F800F02F
:101B100043FE002000F0D2FC00F0ADF800F0A6F883
:101B2000012000F069FB10BD38B5FF2401210C2015
:101B3000FFF702F803208DF8020048208DF803001B
:101B40000120ADF8000069461748FEF71DFE04208D
:101B50008DF803000002ADF8000069461348FEF757
:101B600013FE601CADF8000069461048FEF70CFE3D
:101B70004FF40070ADF8000069460C48FEF704FE13
:101B80000220ADF8000069460748FEF7FDFD00F0B1
:101B9000F7FE04461CB106A0FEF742FB02E009A0D6
:101BA000FEF73EFB38BD000000080140000C01407C
:101BB0007370693120696E6974206572726F720D7D
:101BC0000A000000535831323678496F496E697403
:101BD00020696E6974207375636573730D0A000064
:101BE0001FB504461F48046001210C20FEF7A4FF26
:101BF00003208DF80E0028208DF80F004FF40060B0
:101C0000ADF80C0003A91848FEF7BEFD01210846F7
:101C1000FEF792FF0B210120FEF796FD4FF40060C6
:101C2000019000208DF8080008208DF8090001209F
:101C30008DF80A0001A8FEF7BDFC28208DF80000F1
:101C400002208DF8010003208DF8020001208DF89C
:101C500003006846FEF70CFF4FF40060FEF7A4FC9B
:101C60001FBD000030000020000C014010B5012015
:101C700000F003FA10BD70472DE9F04104460D460F
:101C800016461F464FF000081649086B80473B4632
:101C90003246294614A0FEF7C3FA1248416B4FF4AE
:101CA000FA608847042D03D018A0FEF7B9FA17E0B0
:101CB000D4F8008041461CA0FEF7B2FA4FF4005160
:101CC0001F48FEF73EFE4FF4FA7001F042F94FF460
:101CD00000511B48FEF737FE4FF4FA7001F039F956
:101CE000BDE8F081B43000085278446F6E650D0A8B
:101CF00073697A653A25640D0A727373693A2564CB
:101D00000D0A736E723A25640D0A000072656369EC
:101D100076652073697A6520213D342069732065DA
:101D200072726F720D0A00007265636976652075C4
:101D3000333220646174613D25640D0A00000000A7
:101D40000010014010B50649086B804705A0FEF75A
:101D500067FA0348416B4FF4FA60884710BD0000F2
:101D6000B430000852784572726F722072657472D6
:101D700079207265636976650D0A000010B5064921
:101D8000086B804705A0FEF74BFA0348416B4FF400
:101D9000FA60884710BD0000B430000852785469DA
:101DA0006D656F75742072657472792072656369F0
:101DB00076650D0A0000000010B50CA0FEF730FAA1
:101DC0000D49086B80474FF400510C48FEF7B9FDF0
:101DD0004FF4FA7001F0BDF84FF400510748FEF7D8
:101DE000B2FD4FF4FA7001F0B4F810BD5478446FAE
:101DF0006E650D0A00000000B430000800100140BC
:101E000010B502A0FEF70CFA10BD0000547854691A
:101E10006D656F75740D0A002DE9F04107460D469A
:101E200016460024FFF75AFD002000F0D5F91E20C9
:101E300000F007FC384600F004FC002000F001FC34
:101E400000BF05E0002000F0FCFB2855601C84B2B8
:101E5000B442F7DB012000F0BFF900F079FCBDE8E7
:101E6000F0812DE9F04107460D4616464FF0000877
:101E70000024FFF733FD002000F0AEF9384600F0F3
:101E8000E0FB002000F0DDFB804600BF05E0002005
:101E900000F0D7FB2855601C84B2B442F7DB012068
:101EA00000F09AF900F054FC4046BDE8F08138B5E6
:101EB000044601226946204600F003F89DF8000020
:101EC00038BD2DE9F04104460E4617460025FFF7C0
:101ED00005FD002000F080F91D2000F0B2FB200A73
:101EE00000F0AFFBE0B200F0ACFB002000F0A9FB7B
:101EF00000BF05E0002000F0A4FB7055681C85B20F
:101F0000BD42F7DB012000F067F900F021FCBDE8DD
:101F1000F081000008B50A20FFF70FFD01210C2019
:101F2000FEF70AFE03208DF8020010208DF8030052
:101F30000220ADF8000069460A48FEF725FC0022A1
:101F400002210848FEF701FD1420FFF7F6FC4820A7
:101F50008DF8030069460348FEF716FC0A20FFF7D8
:101F6000ECFC08BD000C014010B54FF49772054918
:101F700005A0FEF755F90A4800680A498860012063
:101F8000087010BD8D3000085B257328292D25644D
:101F90005D73746172742074696D65720D0A00005E
:101FA000340000206800002010B54FF49A720449F4
:101FB00004A0FEF735F900200849087010BD0000A4
:101FC000A03000085B257328292D25645D73746F8C
:101FD000702074696D65720D0A00000068000020B1
:101FE00070B505460E4614463146284600F0A0F965
:101FF000204600F085FA70BD38B505460C468DF8D0
:1020000000508DF80140022269468F2000F0F8FB55
:1020100038BD10B500221146C52000F0F1FB0720A5
:1020200000F0EAF810BD38B50446200A8DF800002B
:10203000E0B28DF80100FFF7E3FC30B902226946F7
:1020400040F2BE6000F004FC00E000BF00BF38BDFD
:1020500038B50446200A8DF80000E0B28DF8010082
:10206000FFF7CEFC30B90222694640F2BC6000F0B6
:10207000EFFB00E000BF00BF38BD01B5012269469B
:102080009D2000F0BDFB08BD2DE9FC4107460C4634
:1020900015461E46380A8DF80000F8B28DF801008A
:1020A000200A8DF80200E0B28DF80300280A8DF8AE
:1020B0000400E8B28DF80500300A8DF80600F0B291
:1020C0008DF8070008226946104600F099FBBDE82C
:1020D000FC81F8B50646F82E01DDF82000E0304618
:1020E000401C441000250020009003E0E01C8410F8
:1020F000681CC5B21F2CF9DC6800401C04FA00F013
:10210000C0B2009001226946A02000F079FB4EB1D8
:1021100005EBC400C0B200909DF8001040F20670BC
:1021200000F08EFBF8BD00007CB5044600250020C1
:1021300000900190207826490978884202D02078C2
:1021400000F0E8F8207820B1012829D00F283AD1F2
:102150003AE008261F496068B1FBF0F5280C8DF8BD
:102160000000280A8DF80100E8B28DF80200207BFB
:102170008DF80300607B8DF80400A068FFF7CBFBAF
:102180000546280C8DF80500280A8DF80600E8B2EF
:102190008DF80700324669468B2000F031FB14E0D1
:1021A0000426207C8DF80000607C8DF80100A07C66
:1021B0008DF80200E07C8DF80300324669468B20E2
:1021C00000F01EFB01E000BF7CBD00BF00BFFBE7CD
:1021D000500000200000093D10B5044624B1102134
:1021E0000448FEF7B0FB03E010210248FEF7A9FB0C
:1021F00010BD000000080140014908707047000050
:102200004C000020F8B504460D4616461F468DF8D2
:1022100000408DF801508DF802608DF803700422A3
:102220006946952000F0ECFAF8BD0000FEB50446C2
:102230000026002000900190029020783349097810
:10224000884202D0207800F065F8207820B101287B
:102250003AD00F284FD14FE0607AF12809D14FF6DC
:10226000FF70FFF7F5FE48F20500FFF7DCFE0226DF
:102270000DE0607AF22809D141F60F50FFF7E8FE31
:1022800041F22100FFF7CFFE062600E0667A09251D
:102290006088000A8DF80000A0788DF80100207990
:1022A0008DF8020060798DF80300A0798DF80400A4
:1022B000E0798DF80500207A8DF806008DF807602A
:1022C000A07A8DF8080018E00625A089000A8DF88C
:1022D0000000207B8DF80100A07B0D4908708DF86F
:1022E0000200E07B8DF80300207C8DF80400607C08
:1022F0008DF8050001E000BFFEBD00BF2A4669461B
:102300008C2000F07DFA00BFF6E7000050000020AE
:102310005100002001B59DF8000004490870012219
:1023200069468A2000F06CFA08BD000050000020C9
:1023300070B504460D462A462146002000F03FFABB
:1023400070BD01B501226946962000F059FA08BD1A
:1023500038B5054600240F48007828B92846FFF70D
:1023600079FA01200B4908702846FFF7D4FA044691
:10237000200E8DF80000200C8DF80100200A8DF849
:102380000200E0B28DF8030004226946862000F0C6
:1023900037FA38BD5800002010B504460221204607
:1023A00000F0CCF810BD38B504460520FFF724FF37
:1023B000200C8DF80000200A8DF80100E0B28DF8A5
:1023C000020003226946822000F01AFA38BD38B5AF
:1023D00004460520FFF710FF962140F6AC0000F000
:1023E0002FFA200C8DF80000200A8DF80100E0B2D1
:1023F0008DF8020003226946822000F001FA38BD00
:102400007CB505460C46280C8DF80000280A8DF88E
:102410000100E8B28DF80200200C8DF80300200ABC
:102420008DF80400E0B28DF805000622694694207C
:1024300000F0E6F90620FFF7DFFE7CBD10B504468C
:10244000234640F22912034903A0FDF7E9FE0A489A
:10245000446010BD773000085B257328292D256462
:102460005D7365742074696D6572206F75742025C5
:1024700064206D730D0A00006800002001B582B071
:1024800000200190FFF7E3F99DF80800C0F38000F9
:1024900080009DF80810C1F3400140EA41009DF81A
:1024A000081001F0010108430190012201A98420D4
:1024B00000F0A6F90020FFF79FFE0EBD01B5012236
:1024C0006946802000F09CF99DF8000018B90120B1
:1024D000FFF792FE02E00220FFF78EFE08BD01B575
:1024E000012269469F2000F08BF908BD10B5044613
:1024F000082221464FF4D86000F0AAF9002010BD50
:1025000038B504460420FFF777FE200C8DF8000054
:10251000200A8DF80100E0B28DF80200032269461E
:10252000832000F06DF938BD10B500221146D1208E
:1025300000F066F90420FFF75FFE10BDF8B5044611
:102540000D46FFF702FA012818D10F2C06D10123FE
:102550001A4600210620FFF755FE05E001231A4622
:1025600000210420FFF74EFE0E2C01DB0E241FE09D
:1025700014F1110F1CDA6FF0100419E040F6D800C6
:10258000FFF795FC40F01E06314640F6D80000F0FB
:1025900057F90123002207210420FFF733FE162CF0
:1025A00001DD162404E014F1090F01DA6FF00804CC
:1025B000E0B28DF800008DF80150022269468E20AD
:1025C00000F01EF9F8BD000010B50446234640F2A5
:1025D0001912034903A0FDF723FE0A48446010BD09
:1025E0003C3000085B257328292D25645D736574D4
:1025F0002074696D6572206F7574202564206D7379
:102600000D0A00005C00002070B504460025FFF7AD
:10261000F7F998B94FF4D760FFF749FC00F0FE05D1
:10262000C4F30020054329464FF4D76000F008F9B1
:10263000E1B240F2B96000F003F900E000BF00BF72
:1026400070BD10B504462046FEF78AF910BD0000A3
:102650001FB501210220FEF74FFA1D208DF8000062
:1026600000208DF8010003208DF8020001208DF874
:1026700003006846FEF7FCF90A20ADF8080012488E
:10268000006842F21071B0FBF1F080B2ADF80400C6
:102690000020ADF80A00ADF8060001A90B4800F0D3
:1026A000E1FA00200A4908700A4908700121074828
:1026B00000F0B1FA0121054800F0AAFA0122114602
:1026C000024800F0C5FA1FBD0400002000040040CD
:1026D0005C0000206800002010B54FF48F7205499F
:1026E00005A0FDF79DFD0A4800680A4988600120A1
:1026F000087010BD523000085B257328292D256411
:102700005D73746172742074696D65720D0A0000E6
:10271000340000205C00002010B54FF49272044990
:1027200004A0FDF77DFD00200849087010BD0000E1
:10273000653000085B257328292D25645D73746F4F
:10274000702074696D65720D0A0000005C00002045
:1027500010B500240BE02046641CB0F57A7F03D945
:1027600006A0FDF75DFD00240120FFF7E6F801213A
:102770000848FEF7DDF80128EDD010BD77616974D7
:1027800020627573792070696E2074696D656F754C
:10279000740D0A000008014010B50020FFF71CFD71
:1027A000C020FFF74EFF0020FFF74BFF0120FFF78F
:1027B00013FDFFF7CDFF0120FFF71EFD10BD2DE932
:1027C000F04107460D4616460024FFF787F8002023
:1027D000FFF702FD0E20FFF734FF3846FFF731FF09
:1027E00000BF04E0285DFFF72CFF601C84B2B442F8
:1027F000F8DB0120FFF7F0FCFFF7AAFFBDE8F0814E
:102800002DE9F04105460E4617460024FFF766F80D
:102810000020FFF7E1FC2846FFF713FF00BF04E0AC
:10282000305DFFF70EFF601C84B2BC42F8DB012074
:10283000FFF7D2FC842D01D0FFF78AFFBDE8F081BD
:1028400013B50446012201A9204600F001F81CBD81
:102850002DE9F04104460E4617460025FFF73EF8E5
:102860000020FFF7B9FC0D20FFF7EBFE200AFFF771
:10287000E8FEE0B2FFF7E5FE00BF04E0705DFFF7A1
:10288000E0FE681C85B2BD42F8DB0120FFF7A4FC26
:10289000FFF75EFFBDE8F08110B500F001F810BD54
:1028A0000CB50020019000903348006840F480305F
:1028B0003149086000BF3048006800F400300090E3
:1028C0000198401C0190009818B90198B0F5A06FCC
:1028D000F1D12948006800F4003010B101200090C7
:1028E00001E0002000900098012843D123480068AF
:1028F00040F01000214908600846006820F00300FD
:1029000008600846006840F0020008601A48406805
:10291000194948600846406848600846406840F4E5
:10292000806048600846406820F47C104860084693
:10293000406840F4E81048600846006840F0807045
:10294000086000BF0C48006800F000700028F9D053
:102950000948406820F0030007494860084640687D
:1029600040F00200486000BF0348406800F00C00DF
:102970000828F9D10CBD00000010024000200240E0
:1029800000B587B001210803FEF7D6F80121042025
:10299000FEF7D2F803208DF81A0018208DF81B00DE
:1029A000E020ADF8180006A91E48FDF7EDFE002056
:1029B000ADF804004FF48270ADF806000020ADF8C9
:1029C0000800ADF80A00ADF80C004FF40070ADF847
:1029D0000E002020ADF810000020ADF812000720F6
:1029E000ADF8140001A91048FEF712FF01210E48AE
:1029F000FEF7F4FE01210420FEF79EF803208DF877
:102A00001A0010208DF81B00ADF8180006A9054823
:102A1000FDF7BAFE10210348FDF795FF002007B02F
:102A200000BD0000000801400030014038B54FF4FF
:102A30004070FEF755F801210846FEF77DF80121A8
:102A40002248FDF72DFF01211020FEF775F84FF405
:102A50000050ADF8000010208DF8030003208DF821
:102A6000020069461A48FDF78FFE4FF400511848DE
:102A7000FDF769FFFDF7A0FF164800684FF47A7272
:102A8000B0FBF2F1B1F1807F00D31DE021F07F4077
:102A9000401E4FF0E022506150170F22002807DA45
:102AA00013071D0E0C4B00F00F04241F1D5503E0EF
:102AB00013071C0E094B1C5400BF00204FF0E022EE
:102AC00090610720106100BF38BD00000002300097
:102AD000001001400400002018ED00E000E400E0D8
:102AE00002480068401C014908607047000000204F
:102AF00010B51348006840F001001149086008460D
:102B00004068104908400E494860084600680E4970
:102B100008400B4908600846006820F480200860DF
:102B20000846406820F4FE0048604FF41F008860AB
:102B3000FFF7B2FE4FF000600449086010BD0000CE
:102B4000001002400000FFF8FFFFF6FE08ED00E075
:102B500010B5002401212A4800F069F800284ED061
:102B600028480068401C274908600121244800F0DB
:102B70004FF825480078F8B1234880682149096852
:102B8000884205D8204880681E4909680C1A06E06A
:102B90001D488068C0F1FF301A49096844181A4876
:102BA0004068A04208D2FFF7B7FD164800681649F2
:102BB00088600020FEF784FA14480078F8B11348C2
:102BC000806810490968884205D8104880680D4916
:102BD00009680C1A06E00D488068C0F1FF30094909
:102BE0000968441809484068A04208D2FFF7DCF998
:102BF00004480068054988600020FEF751FA10BDBE
:102C000000040040340000205C0000206800002028
:102C1000CA430282704721B1028842F00102028059
:102C200004E002884FF6FE731A400280704730B508
:102C30000246002000230024158A05EA0103958935
:102C400005EA010413B10CB1012000E0002030BD01
:102C50001AB183890B43838102E083898B4383818B
:102C600070470000002202881D4B98420ED01D4B79
:102C700098420BD0B0F1804F08D01B4B984205D042
:102C80001A4B984202D01A4B984204D14FF68F73D8
:102C90001A404B881A43174B984207D0164B98425C
:102CA00004D04FF6FF431A40CB881A4302808B882A
:102CB00083850B8803850A4B98420BD0094B9842B9
:102CC00008D00E4B984205D00D4B984202D00D4BC8
:102CD000984201D10B7A038601238382704700005A
:102CE000002C014000340140000400400008004076
:102CF000000C004000100040001400400040014063
:102D0000004401400048014010B52021084800F06F
:102D100075F801280BD1064800F00EF9044621464B
:102D2000034800F00EF92021014800F003F810BD1F
:102D30000038014001F40072B2F5007F00D100BFFD
:102D4000CA430280704721B1828942F400528281D5
:102D500004E082894DF6FF731A40828170470000BB
:102D600010B504462048844209D101218803FDF7AB
:102D7000F3FE00214FF48040FDF7EEFE32E01B48E9
:102D8000844209D101214804FDF7C6FE00214FF419
:102D90000030FDF7C1FE25E01548844209D101212C
:102DA0008804FDF7B9FE00214FF48020FDF7B4FE42
:102DB00018E01048844209D10121C804FDF7ACFE97
:102DC00000214FF40020FDF7A7FE0BE00A488442E3
:102DD00008D101210805FDF79FFE00214FF4801066
:102DE000FDF79AFE10BD000000380140004400408D
:102DF00000480040004C00400050004002460020C7
:102E0000B1F5007F00D100BF13880B400BB101204A
:102E100000E000207047F0B503460024002600259E
:102E2000002040F66A17B94200D100BF1846C1F32E
:102E3000421401F01F06012707FA06F5012C01D103
:102E40000C3004E0022C01D1103000E014301AB133
:102E500007682F43076002E00768AF430760F0BDD3
:102E60002DE9F04786B005460E460024A24600BF75
:102E7000A1460027B08900B100BF2F462C8A4CF62E
:102E8000FF700440F08804432C82AC894EF6F310A6
:102E90000440B08831890843718908430443AC81F8
:102EA000AC8A4FF6FF400440B0890443AC8201A8CD
:102EB000FDF762FE1F48874202D1DDF810A001E055
:102EC000DDF80CA0A88900F4004040B10AEBCA006C
:102ED00000EB0A1031684900B0FBF1F807E00AEB9B
:102EE000CA0000EB0A1031688900B0FBF1F86420D9
:102EF000B8FBF0F004012009642101FB1089A889C6
:102F000000F4004040B1322000EBC900B0FBF1F00A
:102F100000F00700044308E0322000EB09106421B0
:102F2000B0FBF1F000F00F0004432C8106B0BDE8C7
:102F3000F08700000038014001468888C0F308008F
:102F40007047C1F308028280704700BFFEE700BFF0
:102F5000704710B504464FF47A7104FB01F000F09D
:102F600001F810BD0021002200BF05E0002200E0B2
:102F7000521C092AFCD3491C8142F7D37047000038
:102F800070B504460D4600BF80210548FFF736FFA7
:102F90000028F9D0E1B20248FFF7D3FF204670BD08
:102FA00000380140FFF742FD0FA118A0FDF738F9E6
:102FB000FDF74AFB16E0FDF7CDFC044621461AA0BA
:102FC000FDF72EF94FF400511B48FDF7BAFC6420C1
:102FD000FFF7BFFF4FF400511748FDF7B4FC642022
:102FE000FFF7B7FFE7E700007378313236782064E7
:102FF000726976657220666F722073746D33326603
:103000003130332056302E302E3000005379734942
:103010006E6974204F4BA3AC76657273696F6E3A1C
:1030200025730D0A000000007379737469636B3DAA
:1030300025640D0A00000000001001405358313291
:103040003678536574547854696D657256616C7541
:103050006500535831323678547854696D6572532F
:103060007461727400535831323678547854696DF3
:10307000657253746F7000535831323678536574EB
:10308000527854696D657256616C7565005358319C
:10309000323678527854696D657253746172740077
:1030A000535831323678527854696D657253746F63
:1030B00070000000090E0008DB0D00084512000832
:1030C000011200080D100008E1100008CD120008E0
:1030D000F91400084D0C00083D170008B511000850
:1030E000FD1600081D1700082D11000827170008FD
:1030F000CD16000821110008B917000801110008B9
:10310000C91700080D1100080D12000889120008E7
:10311000FF0D00085D0E000871110008E914000899
:10312000C01200001F000000A816000017000000D9
:10313000841C00000F000000E42500001E000000B9
:10314000B42D000016000000083900000E00000039
:103150002C4C00001D000000685B00001500000002
:10316000747200000D000000589800001C00000060
:1031700034B7000014000000E8E400000C00000078
:10318000783101001B000000686E01001300000090
:1031900034CA01000B000000286202001A0000007F
:1031A00040DB0200120000003C9303000A00000014
:1031B000C0C204001900000060B305001100000047
:1031C000382007000900000020A1070000000000CF
:1031D0000405064578616D706C6553583132367858
:1031E00052656369766544656D6F00000C320008B6
:1031F000000000205C0000006C010008683200083C
:103200005C000020EC0700008801000800000000BE
:1032100000A24A04000000000000000001020304B4
:10322000060708090000000001020304010203046C
:10323000060708090204060800000000000000005C
:1032400000000000FF00000000000000000000007F
:10325000000000000000000000000000000000006E
:08326000000000000000000066
:0400000508000131BD
:00000001FF
